:020000040800F2
:10000000F0FF012029800408A5E0020871600108C2
:100010009D8004089D8004089D8004080000000065
:10002000000000000000000000000000B1E0020835
:10003000ADE0020800000000A9E0020891A8000855
:100040009D8004089D8004089D8004089D8004080C
:100050009D8004089D8004086DB10008ADB20008C1
:100060006DB200082DB20008EDB100089D0E010828
:100070008D0E01087D0E01086D0E0108590E010854
:10008000450E0108310E01089D80040800000000A3
:10009000000000000000000000000000ADB10008FA
:1000A00019980008359B00089D800408F59B0008FE
:1000B000759A00089D800408B59900089D80040881
:1000C0009D8004089D8004089D8004089D8004088C
:1000D0009D8004086DA90008D1A800080000000058
:1000E0002DB100089D800408FD28030800000000D1
:1000F0000000000000000000000000001D0E0108CC
:10010000000000009D800408E99800089D80040814
:1001100000000000000000000000000000000000DF
:10012000090E0108F50D0108E10D0108CD0D0108CA
:10013000B90D0108000000000000000000000000F0
:1001400000000000000000000000000099EE02081E
:10015000A50D0108910D01087D0D01089D80040881
:100160009D8004089D80040800000000000000003D
:10017000000000000000000000000000000000007F
:10018000000000009D800408000000000000000046
:080190009D8004089D80040815
:08019800C07B0400010000001F
:1001A00010020100683700206437002000000000C2
:1001B000F00600080B123800C43100206C37002014
:1001C00000000000F20600081A023C00862E002003
:1001D000A437002000000000818C000827000400E4
:1001E000E4370020E0370020000000002A07000864
:1001F00016000800BC3A0020A03C002000000000CF
:100200002E070008F8210600EA410020B04C00202B
:10021000000000003607000803123300BC4B00202A
:10022000EF4B0020000000003C070008250096006E
:10023000704A0020064B0020000000000000000073
:1002400015007000184900208849002000000000B7
:10025000000000002A00600058480020B848002034
:1002600000000000691702082C0010009C4B0020C1
:10027000AC4B0020000000006D9701082B0024000B
:10028000464C0020224C0020000000003D97010851
:1002900019020C00D4410020B84C002000000000DE
:1002A000818600082910780068470020F84900205E
:1002B000000000000000000028101000D44C0020B6
:1002C000C44C002000000000357F0108140003002A
:1002D0001846002055480020000000007007000864
:1002E00010100300B85200205053002000000000FE
:1002F000740700081A000E00185100205453002003
:10030000000000007807000805100600B46800200F
:10031000B86D0020000000008607000826000E00CF
:10032000D06D0020C06D002000000000A9D302089D
:100330001F201C00045E0020046E0020000000004E
:100340008C070008050204004C680020206E002085
:1003500000000000A807000803010A0070660020E2
:10036000246E002000000000AC0700081302030008
:10037000905C0020306E002000000000B6070008EE
:100380000C107800CA800020988600200000000031
:1003900091A603080E7062012A7F002010870020BA
:1003A0000000000091170208090201005C8600208D
:1003B0007488002000000000BA0700080102050050
:1003C000AA7E002078880020000000006930030821
:1003D00000020500608400208088002000000000EA
:1003E000000000001B0208005484002088880020C0
:1003F00000000000B5860008012008009881002058
:100400009088002000000000BC07000819000500CB
:10041000E48500209888002000000000C407000840
:1004200037001E005C810020A08800200000000032
:10043000CA0700081E00050030820020C088002086
:1004400000000000E80700081B00F400406E0020D8
:10045000C888002000000000B14303080E0202001B
:1004600024850020BC89002000000000EE07000861
:100470002F00110079860020C089002000000000B4
:10048000F007000818020200988F0020E88F002073
:10049000000000000000000017020B008D8F0020FC
:1004A000EC8F0020000000000586000802000C0010
:1004B0009C8F0020F88F002000000000000000004A
:1004C00008120900848F0020049000200000000022
:1004D00049860008F70106007E8F0020109000205A
:1004E00000000000020800080A020A004C8A0020EE
:1004F0001890002000000000080800080300010018
:100500007C8B0020249000200000000000000000F0
:100510000400800038CA0020CCCA0020000000007F
:10052000000000002300100000CA00204CCB002077
:10053000000000004D7F01080D00240068C8002065
:100540005CCB00200000000011A80308F9010400A2
:10055000C4BF002080CB002000000000A181000863
:1005600018202C0094BF002084CB00200000000045
:10057000358E000806101800E0B20020B0CB002035
:1005800000000000ED170208FB01010018B2002076
:10059000C8CB00200000000029A00008FC010900D1
:1005A000E4B00020CCCB00200000000039A00008FF
:1005B0003400100010B00020D8CB00200000000054
:1005C000C117020811020800E8AF0020E8CB0020A4
:1005D000000000001408000812120400E0AF002020
:1005E000F0CB0020000000001C080008FD012100E5
:1005F00024A70020F4CB002000000000298100087F
:1006000013000400549B002018CC002000000000C0
:1006100020080008F6210C00589B00201CCC00206C
:10062000000000002408000812200D00F09A0020AD
:1006300028CC00200000000030080008F5317400CC
:100640007C9A002038CC002000000000193D0308EF
:100650000B301400689A0020ACCC00200000000091
:100660003E08000801010400649A0020C0CC00206C
:10067000000000000000000000010400609A00205B
:10068000C4CC002000000000520800080201030052
:100690005C9A0020C8CC002000000000B9A6030826
:1006A0000A402C0094920020CCCC002000000000D6
:1006B000560800080202030078900020F8CC0020C1
:1006C00000000000000000000C0203003490002035
:1006D000FCCC002000000000A5860008FE010900F7
:1006E0001C92002000CD0020000000009186000830
:1006F00000000000000000000000000000000000FA
:1007000000000000000000000000000000000000E9
:1007100000000000000000000000000000000000D9
:100720000000000000000000000020030000651B26
:100730000D00190128280401F40114000000000034
:1007400000000000000000000000000000000000A9
:100750000000000000000000000000000000000099
:100760000000000000000000000000000000010088
:1007700003000000000500007E05EA05B405320014
:10078000E803D00700002000030100000000000083
:10079000000100000005000001020300000000004D
:1007A0000000000000000000000000000401010043
:1007B0006C1600000000000000000000E803640068
:1007C000040A000100002801000020003200C800D7
:1007D000D0079600140032002800B004400600053F
:1007E000500014000F00080100000100000000008C
:1007F00000000000000000000000000000000000F9
:1008000000003F010000000000004A01B400D601D2
:10081000000000000000000001010101FFFFFFFFD8
:100820000004442200000000010000000202000059
:1008300000000001000005433446520000002B2157
:10084000231E64010100000001000A0129000F2895
:100850000000B300000000300100000000005A005A
:100860000000000000000000000000000000020086
:1008700000019E077D004632B80BB80BB80B100084
:02088000000076
:1008820001010100800100000800000004000000D6
:10089200000000000000000001020304060708092E
:1008A2000102FFFFD6010100000101010001000069
:1008B200FFFFFFFFFFFF01000000803F000000007C
:1008C20000000000000000000000803F0000000067
:1008D20000000000000000000000803F0000000057
:1008E2000000000000000000E9820008E982000820
:1008F200E98200081F852B3F0000803FFF000000B7
:100902000403090412010002EF020140830456327B
:100912000002010203010000120100020202004073
:10092200830440570002010203010000090264002F
:10093200030100C032090400000103000000092184
:10094200110100012226000705830308000A080B93
:100952000102020201000904010001020201000574
:1009620024001001052401000204240202052406C9
:100972000102070582030800FF09040200020A00BF
:100982000000070501024000000705810240000047
:1009920009024300020100C0320904000001020200
:1009A20001000524001001052401000104240202B3
:1009B2000524060001070582030800FF090401005F
:1009C200020A00000007050102400000070581023B
:1009D20040000000FF00000000FFFF0000000000D8
:1009E200AA5505010000010005010905A101A100A8
:1009F2000501093009310932093309350934094041
:100A020009381581257F750895088102C0C000004C
:100A120009022200010100E0320904000001030181
:100A220002000921110100012226000705830308A3
:100A3200000A000000000000010203040102030496
:100A42000607080945E202080DE9020889E40208DE
:100A5200B9C70208C1CC0208C9C70208E5C7020823
:100A620091C7020881C702080000000000000000D0
:100A72002D202D2D202D2D2D2D202D2D2D2D000025
:100A8200000000000000000000000000000000AABA
:100A9200550B010000AA5507010000AA55090200E2
:100AA2000000000001000000C012AA5503009F00D0
:100AB200FF1FFF1F01000000E06D0020000000008A
:100AC2002C0700200400000001000000201405088B
:100AD2007023050800000000CDA60308A0860100CF
:100AE2000400000000000000000000000000000000
:100AF20000000000000000000000000000000000F4
:100B0200201405087823050800000000951101084B
:100B1200E8030000040000000000000000000000E4
:100B220000000000000000000000000000000000C3
:100B320000000000B02B050898F104080000000036
:100B42007DCE03087D0000000600000000000000CA
:100B52000000000000000000000000000000000093
:100B620000000000000000007813050800000000EB
:100B72000000000049380108E803000003000000FB
:100B82000000000000000000000000000000000063
:100B920000000000000000000000000080230508A3
:100BA2000000000000000000BD1B0208C409000094
:100BB200050000000000000000000000000000002E
:100BC2000000000000000000000000000000000023
:100BD2008C230508000000004594010865500108B7
:100BE2006A1800000500000000000000000000007C
:100BF20000000000000000000000000000000000F3
:100C020000000000E01505080000000000000000E0
:100C1200AD7701081027000001000000000000006D
:100C220000000000000000000000000000000000C2
:100C320000000000000000009023050800000000F2
:100C42000000000019120108E8030000050000007E
:100C52000000000000000000000000000000000092
:100C62000000000000000000000000009C230508B6
:100C7200000000000000000065BD0308204E0000D7
:100C8200030000000000000000000000000000005F
:100C92000000000000000000000000000000000052
:100CA200AC230508000000000000000051BB03084F
:100CB200204E0000030000000000000000000000C1
:100CC2000000000000000000000000000000000022
:100CD20000000000BC230508000000000000000026
:100CE200F1600108400D0300030000000000000055
:100CF20000000000000000000000000000000000F2
:100D02000000000000000000E414050800000000DC
:100D120000000000E9FF03081027000001000000A6
:100D220000000000000000000000000000000000C1
:100D32000000000000000000000000009013050801
:100D42000000000000000000FD72030810270000F0
:100D5200030000000000000000000000000000008E
:100D62000000000000000000000000000000000081
:100D7200CC230508000000000000000099110108C2
:100D8200A861000001000000000000000000000057
:100D92000000000000000000000000000000000051
:100DA20000000000E8150508000000000000000037
:100DB20085120108A00F00000100000000000000E1
:100DC2000000000000000000000000000000000021
:100DD2000000000000000000D82305080000000009
:100DE20000000000953F03081027000001000000EA
:100DF20000000000000000000000000000000000F1
:100E0200000000000000000000000000EC140508D3
:100E120000000000000000008D0403081A410000D9
:100E220001000000000000000000000000000000BF
:100E320000000000000000000000000000000000B0
:100E4200481605080000000000000000CDCF02088F
:100E52001027000001000000000000000000000058
:100E62000000000000000000000000000000000080
:100E720000000000E423050800000000000000005C
:100E8200115F03081A410000010000000000000089
:100E92000000000000000000000000000000000050
:100EA2000000000000000000E82305080000000028
:100EB2000000000009000308400D030000000000CC
:100EC2000000000000000000000000000000000020
:100ED200000000000000000000000000F0230508F0
:100EE200000000000000000051110108400D030045
:100EF20000000000000000000000000000000000F0
:100F020000000000000000000000000000000000DF
:100F1200F82305080000000000000000E580030837
:100F220050C30000030000000000000000000000A9
:100F320000000000000000000000000000000000AF
:100F4200000000000424050800000000000000006A
:100F5200C5BA030840420F00000000000000000074
:100F6200000000000000000000000000000000007F
:100F7200000000000000000010240508000000002E
:100F8200000000005102040850C3000000000000ED
:100F9200000000000000000000000000000000004F
:100FA2000000000000000000000000000002000538
:100FB2001002700B00000100E001010101000000BD
:100FC2003D34030800000000B4080020583305082F
:100FD200000000000000000000000000000000000F
:100FE2002826050800000000000000007209002009
:100FF20004000000043305080D000000615A0308D4
:10100200882A002000000000202B05080D000000A7
:10101200895A03087C2A002000000000E02C050801
:101022000800000000000000702A002004000000F8
:101032008C2B05080D000000F1340308642A0020FF
:10104200000000003C2C0508030000009D5D030821
:10105200582A002000000000683305080300000041
:101062009D5D03084C2A002000000000D8260508D8
:10107200010000000000000000000000000000006D
:10108200000000000E000000000000000000000050
:1010920000000000583305080000000000000000B6
:1010A20000000000000000002826050800000000E3
:1010B200000000007209002004000000B0320508A0
:1010C200030000000D3E0308402A00200800000033
:1010D2008C2B05080D000000F1340308642A00205F
:1010E200000000003C2C0508030000009D5D030881
:1010F200582A0020000000006833050803000000A1
:101102009D5D03084C2A002000000000D826050837
:1011120001000000000000000000000000000000CC
:10112200000000000E0000000000000000000000AF
:1011320000000000703305080000000000000000FD
:101142000000000000000000282605080000000042
:10115200000000007209002004000000B8320508F7
:10116200030000009D5D0308942A00200000000097
:10117200D826050801000000000000000000000061
:1011820000000000000000000E000000000000004F
:10119200000000000000000020700020702D72008E
:1011A200FFFFFFFF010000000000803F0800000079
:1011B2000000000000000000FC250020FA000000F2
:1011C20001000000010000000000803F000000005C
:1011D200000000000000000000000000000000000D
:1011E20000000000000000000000000000000000FD
:1011F200FFFF2D202D2D202D2D2D2D202D2D2D00CD
:1012020000000000000000000000000000000000DC
:10121200000000000000803F0000803FFFFFFFFF52
:10122200968100200000F40101000000948100205A
:101232000000F40101000000928100200000F4018E
:1012420001000000908100200000F4010100000074
:101252008E8100200000F401010000008C8100203A
:101262000000F401010000008A8100200000F40166
:1012720001000000442605080000000000000000F4
:1012820000000000000000005C26050800000000CD
:101292000000000000000000000000007C2605089D
:1012A2000800000000000000E80900200000000023
:1012B200882605080800000000000000DC09002064
:1012C200000000009426050808000000000000004D
:1012D200D009002000000000A02605080800000038
:1012E20000000000C409002000000000A826050834
:1012F2000800000000000000B80900200000000003
:10130200B42605080800000000000000AC09002017
:1013120000000000C02605080800000000000000D0
:10132200A009002000000000CC26050802000000F1
:101332004D5C03080200000000000000D8260508EA
:10134200010000000000000000000000000000009A
:10135200000000000E00000000000000000000007D
:10136200000000008D3B0308453B0308F409002000
:10137200888100200532010086810020E803D00721
:101382000100000084810020E803D0070100000072
:1013920082810020E803D007010000008081002044
:1013A2001E00B80B010000007E8100201E00F40127
:1013B200010000007C810020140064000100000094
:1013C2007A8100200000C80001000000E026050824
:1013D200E8260508042705080000000000000000B8
:1013E20000000000000000005C260508000000006C
:1013F200000000000000000000000000182705089F
:101402000800000000000000400B00200000000067
:10141200202705080800000000000000340B00200F
:10142200000000003427050808000000000000004A
:10143200280B0020000000004827050808000000D3
:10144200000000001C0B0020000000005C270508C3
:101452000800000000000000100B00200000000047
:101462006C2705080800000000000000040B0020A3
:10147200000000007C2705080800000000000000B2
:10148200F80A0020000000008C2705080700000071
:1014920000000000F00A0020000000009C27050860
:1014A200030000009D5D0308E40A00200000000024
:1014B200CC260508020000004D5C03080200000073
:1014C20000000000D826050801000000000000000E
:1014D2000000000000000000000000000E000000FC
:1014E200000000000000000000000000AC2705081A
:1014F20000000000000000000000000000000000EA
:1015020047240508040000002B58030800000000CF
:1015120000000000D82605080100000000000000BD
:101522000000000000000000000000000E000000AB
:101532000000000000000000000000002E9A0020C1
:101542000100C409000000002C9A00200100C40917
:10155200000000002A9A00200100C40900000000D7
:10156200289A00200100C40900000000249A0020EB
:101572000100C40900000000269A00200100C409ED
:1015820000000000229A00200100C40900000000AF
:10159200209A00200100C40900000000BE7E002045
:1015A2000000FFFF0A000000BC7E00200100C8000E
:1015B20001000000BA7E00203200307532000000C7
:1015C200B87E0020055A0500B57E002000FF01000C
:1015D200B77E0020010000004C0B0020B37E0020EB
:1015E200020000004CD00408B47E002000FF01007D
:1015F200B67E0020010000004C0B0020B27E0020CD
:10160200020000004CD00408A87E002080C1803E69
:1016120005000000A67E002080C1803E050000007B
:10162200A47E002080C1803E05000000A27E002032
:1016320080C1803E05000000A17E002000FF010065
:10164200A07E00200A3201009F7E002004000000DC
:1016520008D404089E7E0020020000001CD4040866
:10166200F53A0308A53A0308540B0020A481002090
:10167200EE02CA0801000000A281002000C8010099
:1016820064000000A181002000C801006400000085
:10169200A08100200200000028D4040800000000FD
:1016A200000000006C0C0020F86700209CFF2C0159
:1016B200000000003A0700200A00000034D40408A9
:1016C200947E0020E0150C17000000003C0700206B
:1016D2000800000020D004083B070020050000009D
:1016E20068D50408967E0020020000004CD404084D
:1016F200B08100200100FF7F01000000AF810020C7
:101702000200000058D404089E8000200000803EA1
:10171200640000009C8000200000803E6400000005
:101722009A8000200000803E64000000A08000201B
:101732000300000201000000968000200000F40176
:1017420001000000948000200000F401010000006C
:10175200928000200000F40101000000908000202F
:101762000000F401010000008E8000200000803E95
:10177200010000008C8000200000803E010000007B
:10178200988000200000803E01000000C6800020FA
:10179200E803D0070A000000C480002000FA01001C
:1017A2000A000000C380002000FA01000A000000C5
:1017B200C280002000FA01000A000000B780002069
:1017C20000640100B680002000640100BE80002099
:1017D200006401000A000000BD80002000640100D6
:1017E2000A000000BC800020006401000A00000022
:1017F200C1800020006401000A000000C0800020B7
:10180200006401000A000000BF80002000640100A3
:101812000A000000BB80002000FF01000A00000057
:10182200BA80002000FF01000A000000B9800020F9
:1018320000FF01000A000000267F00200000F401E2
:1018420001000000227F00200000F40101000000DE
:10185200207F00200000F401010000001E7F002014
:101862000000F401010000001C7F00200000F401D0
:1018720001000000247F00200000F40101000000AC
:10188200B4800020FF080100B38000200164010041
:10189200B280002000640100B08000201400E80340
:1018A20001000000AE800020E80330750A0000004D
:1018B200AD8000200100000068D40408AC80002044
:1018C20000C80100AB80002000C80100AA800020EF
:1018D20000C80100A980002000FA01000A000000EF
:1018E200A880002000FA01000A000000A780002062
:1018F20000FA01000A000000A680002000FA0100A0
:101902000A000000A580002000FA01000A00000081
:10191200A480002000FA01000A000000A380002039
:10192200006401000A0000004581002001C8010096
:1019320044810020010A01004C81002000FA0100CC
:101942004A8100200000E803050000005A810020BF
:101952000000D007010000005581002000C80100EE
:101962005481002000C801005381002000C80100FA
:10197200588100200000D0070100000052810020A1
:1019820000C801005181002000C8010050810020E0
:1019920000C80100568100200000D00701000000AD
:1019A2004F81002000C801004E81002000C80100C4
:1019B2004D81002000C801004881002000FA01008A
:1019C200468100200000E80305000000438100205A
:1019D20000640100D4270508000000000000000098
:1019E200000000000000000088F104080900000067
:1019F20000000000100D00200400000090F1040817
:101A02000900000000000000040D00200400000096
:101A1200943005080900000000000000F80C0020C6
:101A22000400000014250508090000000000000061
:101A3200EC0C002004000000E42705080900000067
:101A420000000000E00C002004000000EC27050864
:101A52000900000000000000D40C00200400000077
:101A6200F42705080900000000000000C80C00204F
:101A720004000000FC270508090000000000000027
:101A8200BC0C002004000000D8260508010000005C
:101A92000000000000000000000000000000000044
:101AA2000E00000000000000000000000000000026
:101AB200FC290508000000000000000000000000F2
:101AC20000000000D4130508070000000000000019
:101AD200400D0020000000000C2A0508080000004C
:101AE20000000000340D002000000000182A050844
:101AF2000800000000000000280D00200000000087
:101B0200202A050808000000000000001C0D00202B
:101B120000000000CC260508020000004D5C03080E
:101B22000100000000000000D826050801000000A6
:101B320000000000000000000000000000000000A3
:101B42000E00000000000000000000000000000085
:101B5200302A05080000000000000000000000001C
:101B620000000000402A05080D00000000000000EF
:101B72007C0D002000000000482A05080D0000002E
:101B820000000000700D002000000000502A05082F
:101B92000700000000000000680D002000000000A7
:101BA200582A05080D000000000000005C0D00200E
:101BB20000000000602A05080D000000000000007F
:101BC200500D002000000000682A050807000000F0
:101BD20000000000480D002000000000CC2605088F
:101BE200020000004D5C030801000000000000003C
:101BF200D8260508010000000000000000000000D7
:101C020000000000000000000E00000000000000C4
:101C12000000000000000000702A0508000000001B
:101C2200000000000000000000000000D4130508BE
:101C32000C00000000000000C07E00200000000038
:101C4200842A05080C00000000000000C27E00206B
:101C520000000000942A05080C00000000000000AB
:101C6200F87E002000000000A42A05080C000000F5
:101C720000000000EC7E002000000000B82A0508E9
:101C82000C00000000000000C47E002000000000E4
:101C9200C42A05080C00000000000000C67E0020D7
:101CA20000000000CC2A05080C0000000000000023
:101CB200C87E002000000000E02A05080C00000099
:101CC20000000000CA7E002000000000E82A05088B
:101CD2000C00000000000000CC7E0020000000008C
:101CE200F02A05080C000000000000000A7F002016
:101CF20000000000082B05080C0000000000000096
:101D0200CE7E002000000000142B05080C0000000D
:101D120000000000D07E002000000000A42C050876
:101D22000C00000000000000D27E00200000000035
:101D32001C2B05080C00000000000000D47E0020CF
:101D420000000000282B05080C0000000000000025
:101D5200D67E002000000000342B05080C00000095
:101D620000000000D87E002000000000402B050883
:101D72000C00000000000000DA7E002000000000DD
:101D82004C2B05080C00000000000000DC7E002047
:101D920000000000582B05080C00000000000000A5
:101DA200F07E002000000000602B05080C000000FF
:101DB20000000000EE7E002000000000682B0508F5
:101DC2000C00000000000000FC7E0020000000006B
:101DD200742B05080C00000000000000FE7E0020AD
:101DE20000000000802B05080C000000000000002D
:101DF200047F002000000000CC2305080C00000036
:101E020000000000DE7E0020000000008C2B050890
:101E12000C00000000000000E67E00200000000030
:101E2200942B05080C00000000000000E07E00205A
:101E320000000000A02B05080C00000000000000BC
:101E4200E27E002000000000AC2B05080C00000020
:101E520000000000E47E002000000000B42B050812
:101E62000C00000000000000E87E002000000000DE
:101E7200F41305080C00000000000000F27E0020B0
:101E820000000000C02B05080C000000000000004C
:101E9200EA7E002000000000B32505080C000000C7
:101EA20000000000FA7E002000000000CC2B050894
:101EB2000C00000000000000F47E00200000000082
:101EC200D42B05080C00000000000000F67E002064
:101ED20000000000DC2B05080C00000000000000E0
:101EE200007F002000000000E42B05080C00000029
:101EF20000000000027F002000000000EC2B05081B
:101F02000C00000000000000147F00200000000010
:101F1200D8260508010000000000000000000000B3
:101F220000000000000000000E00000000000000A1
:101F32000000000000000000F42B05080000000073
:101F4200000000000000000000000000002C050856
:101F52000D00000000000000D40D00200000000071
:101F6200082C05080D00000000000000C80D00202C
:101F720000000000102C050807000000000000000F
:101F8200C00D0020000000001C2C05080700000006
:101F920000000000B80D002000000000282C0508F9
:101FA2000900000000000000AC0D0020000000004D
:101FB200342C05080900000000000000A00D0020DC
:101FC20000000000402C050809000000000000008D
:101FD200940D002000000000502C050809000000AC
:101FE20000000000880D002000000000CC2605083B
:101FF200020000004D5C0308010000000000000028
:10200200D8260508010000000000000000000000C2
:1020120000000000000000000E00000000000000B0
:102022000000000000000000642C05080000000011
:102032000000000000000000000000005C2605080F
:10204200000000000000000000000000000000008E
:10205200742C05080D00000000000000100E002086
:1020620000000000802C05080B00000000000000AA
:10207200040E0020000000008C2C05080B0000005C
:1020820000000000F80D0020000000009C2C050854
:102092000800000000000000EC0D0020000000001D
:1020A200B02C0508030000009D5D0308E00D002030
:1020B20000000000CC260508020000004D5C030869
:1020C2000200000000000000D82605080100000000
:1020D20000000000000000000000000000000000FE
:1020E2000E000000000000000000000000000000E0
:1020F200BC2C0508000000000000000000000000E9
:1021020000000000CC2C05080500000000000000C3
:102112001B7F002000000000CC2605080200000002
:102122004D5C03080100000000000000D8260508ED
:10213200010000000000000000000000000000009C
:10214200000000000E00000000000000000000007F
:1021520000000000D42C0508000000000000000070
:102162000000000000000000282605080000000012
:1021720000000000F0010020040000001025050806
:102182000D0000008D580308640E002000000000BE
:10219200043305080D000000F5330308580E002033
:1021A20000000000202B05080D000000D9330308B1
:1021B2004C0E002000000000E02C05080800000082
:1021C20000000000400E0020040000008C2B0508D7
:1021D2000D00000021330308340E0020000000002F
:1021E200E82C05080900000000000000280E00206D
:1021F200040000003C2C0508030000009D5D03085C
:102202001C0E002000000000D82605080100000076
:1022120000000000000000000000000000000000BC
:102222000E0000000000000000000000000000009E
:10223200F02C050800000000000000000000000073
:1022420000000000002D05080D0000000000000045
:102252007C0E002000000000082D05080A00000086
:1022620000000000DE81002000000000142D05089F
:102272000A00000000000000E681002000000000CB
:102282001C2D05080A00000000000000EE8100205D
:1022920000000000242D05080800000000000000D6
:1022A200700E002000000000CC260508020000008D
:1022B2004D5C03080100000000000000D82605085C
:1022C200010000000000000000000000000000000B
:1022D200000000000E0000000000000000000000EE
:1022E200000000002C2D0508000000000000000086
:1022F2000000000000000000402D0508080000005A
:1023020000000000000F002000000000502D050812
:102312000800000000000000F40E00200000000091
:102322005C2D05080800000000000000E80E0020F7
:1023320000000000682D05080800000000000000F1
:10234200DC0E002000000000742D050808000000CB
:1023520000000000D00E002000000000802D0508C3
:102362000800000000000000C40E00200000000071
:102372008C2D05080800000000000000B80E0020A7
:1023820000000000982D0508080000000000000071
:10239200AC0E002000000000A02D0508080000007F
:1023A20000000000A00E002000000000A82D05087B
:1023B2000800000000000000940E00200000000051
:1023C200B02D05080800000000000000880E002063
:1023D20000000000CC260508020000004D5C030846
:1023E2000100000000000000D826050801000000DE
:1023F20000000000000000000000000000000000DB
:102402000E000000000000000000000000000000BC
:10241200B82D050800000000000000001B09002084
:1024220000000000C42D05080B00000000000000A1
:10243200AC0F002000000000D02D05080B000000AA
:1024420000000000A00F002000000000DC2D0508A5
:102452000B00000000000000940F002000000000AC
:10246200E82D05080B00000000000000880F002086
:1024720000000000F42D05080B0000000000000021
:102482007C0F002000000000002E05080B00000059
:1024920000000000700F0020000000000C2E050854
:1024A2000B00000000000000640F0020000000008C
:1024B200182E05080B00000000000000580F002035
:1024C20000000000242E05080B00000000000000A0
:1024D2004C0F002000000000302E0508070000000D
:1024E20000000000440F002000000000382E050804
:1024F20007000000000000003C0F00200000000068
:10250200442E05080B00000000000000300F0020E0
:1025120000000000502E05080B0000000000000023
:10252200240F0020000000005C2E05080B000000B4
:1025320000000000180F002000000000682E0508AF
:1025420008000000000000000C0F00200000000046
:10255200CC260508020000004D5C030801000000C3
:1025620000000000D826050801000000000000005D
:102572000000000000000000000000000E0000004B
:10258200000000000000000000000000782E050896
:102592000000000000000000000000000000000039
:1025A2008C2E05080800000000000000F40F002037
:1025B200000000009C2E050808000000000000003A
:1025C200E80F002000000000A82E05080800000007
:1025D20000000000DC0F002000000000B42E0508FF
:1025E2000800000000000000D00F002000000000E2
:1025F200C02E05080800000000000000C40F0020E3
:1026020000000000CC2E05080800000000000000B9
:10261200B80F002000000000CC26050802000000D0
:102622004D5C03080100000000000000D8260508E8
:102632000100000000000000000000000000000097
:10264200000000000E00000000000000000000007A
:1026520000000000D42E0508000000000000000069
:102662001809002000000000E42E05080B000000FD
:10267200000000009C10002000000000F02E050861
:102682000B0000000000000090100020000000007D
:10269200FC2E05080B000000000000008410002042
:1026A20000000000082F05080B00000000000000D9
:1026B2007810002000000000142F05080B00000015
:1026C200000000006C10002000000000242F05080C
:1026D2000B0000000000000060100020000000005D
:1026E200342F05080B0000000000000054100020E9
:1026F20000000000442F0508070000000000000051
:102702004C10002000000000502F050807000000B8
:102712000000000044100020000000005C2F0508AB
:1027220007000000000000003C1000200000000034
:10273200682F05080D000000000000003010002086
:1027420000000000782F05080800000000000000CB
:102752002410002000000000802F0508080000005F
:10276200000000001810002000000000882F05085B
:102772000700000000000000101000200000000010
:10278200942F050807000000000000000810002038
:1027920000000000A42F0508060000000000000051
:1027A2000010002000000000CC26050802000000F6
:1027B2004D5C03080100000000000000D826050857
:1027C2000100000000000000000000000000000006
:1027D200000000000E0000000000000000000000E9
:1027E20000000000B42F05080000000000000000F7
:1027F2001809002000000000CC2F05080700000087
:10280200000000004C11002000000000D82F050835
:10281200080000000000000040110020000000003D
:10282200E42F050807000000000000003811002016
:1028320000000000F02F0508070000000000000063
:102842003011002000000000F82F050807000000EA
:1028520000000000281100200000000000300508E0
:10286200070000000000000020110020000000000E
:1028720008300508080000000000000014110020C4
:1028820000000000103005080700000000000000F2
:102892000C1100200000000018300508070000009D
:1028A2000000000004110020000000002030050894
:1028B2000700000000000000FC10002000000000E3
:1028C200283005080800000000000000F010002079
:1028D2000000000030300508070000000000000082
:1028E200E810002000000000383005080700000052
:1028F20000000000E0100020000000004030050849
:102902000700000000000000D810002000000000B6
:10291200483005080800000000000000CC1000202C
:102922000000000050300508080000000000000010
:10293200C010002000000000603005080700000001
:1029420000000000B81000200000000070300508F0
:102952000700000000000000B0100020000000008E
:10296200783005080700000000000000A8100020D1
:1029720000000000CC260508020000004D5C0308A0
:102982000100000000000000D82605080100000038
:102992000000000000000000000000000000000035
:1029A2000E00000000000000000000000000000017
:1029B200000000008537030854110020197F002011
:1029C2002D00000070D40408187F002000C8010008
:1029D200167F0020E803D007010000004352415A4D
:1029E200594245454634465200000000B17E00205F
:1029F20000030100B07E002000030100C536030879
:102A020095360308301200205136030805360308B4
:102A1200D01200200D370308F53603089813002062
:102A22006935030815350308B8160020053C03086C
:102A3200D53B0308A81700209B370308B15A0308A7
:102A4200701800206133030800000000D418002031
:102A52004D3E0308693C0308B01900208D38030875
:102A620039380308641A00207D390308C539030880
:102A7200901B0020B580002001060100F9370308F1
:102A8200C13703080C1D0020E1380308E15A03088E
:102A9200D41D0020F13903087D5B0308641F002068
:102AA200A28000200103010084300508000000001C
:102AB2000000000000000000000000009030050847
:102AC200080000000000000050210020000000006B
:102AD200983005080700000000000000482100208F
:102AE20000000000A83005080D00000000000000F2
:102AF2003C21002000000000B43005080300000063
:102B02009D5D03083021002000000000CC2605084E
:102B1200020000004D5C03080100000000000000FC
:102B2200D826050801000000000000000000000097
:102B320000000000000000000E0000000000000085
:102B42000000000000000000BC300508000000008A
:102B5200000000000000000000000000CC3005086A
:102B62000A00000000000000D43005080000000048
:102B7200DC3005080A0000000000000028E5040817
:102B820000000000E43005080A0000000000000018
:102B9200A681002000000000EC3005080A000000B9
:102BA200000000005C21002000000000D82605087B
:102BB2000100000000000000000000000000000012
:102BC200000000000E0000000000000000000000F5
:102BD20000000000F43005080000000000000000C2
:102BE20000000000000000000031050803000000A2
:102BF2009D5D030894210020000000000C310508AF
:102C0200030000009D5D03088821002000000000F1
:102C120014310508030000009D5D03087C2100209B
:102C2200000000001C310508050000000000000043
:102C3200AF7E0020000000002431050807000000DC
:102C4200000000007421002000000000303105085F
:102C520007000000000000006C21002000000000BE
:102C6200CC260508020000004D5C030801000000AC
:102C720000000000D8260508010000000000000046
:102C82000000000000000000000000000E00000034
:102C92000000000000000000000000003C310508B8
:102CA2000000000000000000000000000000000022
:102CB20050310508030000009D5D0308D02100206B
:102CC200000000005C310508030000009D5D030860
:102CD20040070020000000006431050803000000E6
:102CE2009D5D0308C4210020000000006C3105082E
:102CF200030000009D5D0308B821002000000000D1
:102D020078310508030000009D5D0308AC21002016
:102D1200000000008C2B0508030000009D5D0308E5
:102D2200A021002000000000CC26050802000000BF
:102D32004D5C03080100000000000000D8260508D1
:102D42000100000000000000000000000000000080
:102D5200000000000E000000000000000000000063
:102D6200000000008431050800000000000000009F
:102D72000000000000000000943105080700000078
:102D8200155C03082022002000000000B02B05087B
:102D9200030000009D5D03081422002000000000D3
:102DA200A0310508030000009D5D030808220020F1
:102DB20000000000A8310508030000009D5D030823
:102DC200FC21002000000000B031050807000000CF
:102DD200F95B0308F421002000000000803505089B
:102DE200030000009D5D0308E821002000000000B0
:102DF200BC310508030000009D5D0308DC210020B2
:102E020000000000CC260508020000004D5C03080B
:102E12000100000000000000D826050801000000A3
:102E220000000000000000000000000000000000A0
:102E32000E00000000000000000000000000000082
:102E4200553703082537030828220020353C03089C
:102E520000000000C8220020E1350308BD35030848
:102E62005423002000000000000000001C24002069
:102E72007D3A0308315C0308E4240020C8310508C8
:102E82000000000000000000000000000000000040
:102E9200D4310508030000009D5D0308F0250020E1
:102EA20000000000DC310508030000009D5D0308FE
:102EB200E425002000000000EC14050803000000D7
:102EC2009D5D0308D825002000000000E8310508B8
:102ED200030000009D5D0308CC25002000000000D7
:102EE200F4310508030000009D5D0308C0250020A1
:102EF20000000000FC310508020000004D5C0308E0
:102F02000000000000000000CC26050802000000BE
:102F12004D5C0308010000000000000004320508B7
:102F2200020000004D5C03080200000000000000E7
:102F3200000000000E000000000000000000000081
:102F4200000000009A7E002088136F170100000025
:102F52009C7E002088136F170000000010320508C5
:102F6200000000000000000000000000000000005F
:102F7200203205080800000000000000D0260020D2
:102F8200040000002C3205080800000000000000C8
:102F9200C4260020000000003C2C050804000000AC
:102FA200B55803080000000000000000D8260508FC
:102FB200010000000000000000000000000000000E
:102FC200000000000E0000000000000000000000F1
:102FD20000000000987E002088136F170100000097
:102FE2003868002088136F1700000000A53403081A
:102FF20000000000DC260020AE840020010000005A
:1030020028D504083A6800200100000034D50408DD
:1030120030680020020000003CD50408565E002003
:103022000000000000000000545E002000000000CC
:1030320000000000525E00200000000000000000BE
:10304200505E002000000000000000004E5E0020E4
:1030520000000000000000004C5E002000000000A4
:103062000000000028020020000000000000000014
:10307200977E00200200000048D504086832050847
:10308200000000000000000000000000000000003E
:103092002032050808000000000000006027002020
:1030A200040000002C3205080800000000000000A7
:1030B20054270020000000003C2C050804000000FA
:1030C200753403080000000000000000D82605083F
:1030D20001000000000000000000000000000000ED
:1030E200000000000E0000000000000000000000D0
:1030F2000000000078320508000000000000000017
:103102000000000000000000883205080D000000E9
:10311200055A030890270020040000009432050895
:103122000D000000CD3403088427002004000000B5
:10313200A03205080D000000C959030878270020B5
:1031420000000000AC320508030000002D3E030819
:103152006C27002008000000B832050803000000B8
:103162009D5D0308942A002000000000D82605086F
:10317200010000000000000000000000000000004C
:10318200000000000E00000000000000000000002F
:1031920000000000AC27050800000000000000004D
:1031A20000000000000000004724050804000000A1
:1031B200CD5803080000000000000000D8260508D2
:1031C20001000000000000000000000000000000FC
:1031D200000000000E0000000000000000000000DF
:1031E200000000000C330508000000000000000091
:1031F2000000000000000000DCF504080D000000E3
:1032020000000000F0270020040000001C33050825
:103212000800000000000000E42700200400000075
:10322200283305080800000000000000D82700200D
:103232000400000030330508080000000000000010
:10324200CC270020040000003833050808000000E5
:1032520000000000C02700200400000040330508E1
:103262000800000000000000B42700200400000055
:10327200483305080800000000000000A8270020CD
:1032820004000000503305080800000000000000A0
:103292009C27002004000000D82605080100000039
:1032A200000000000000000000000000000000001C
:1032B2000E000000000000000000000000000000FE
:1032C2008D34030800000000FC27002000000000ED
:1032D2000000000074280020000000000000000030
:1032E20014290020366800200400000054D5040888
:1032F20034680020E0150C1700000000336800203D
:103302000800000020D004083268002005000000F8
:1033120068D50408000000000000000064290020B5
:1033220000000000D88F002008000000000000000C
:10333200C88F0020080000008DCC020881CB020853
:1033420065E40208000000007DC70208A1EA020845
:1033520001CB02089DE1020800000000000000000D
:1033620039C70208FDCB020841CB0208A5E30208D7
:103372000000000051C70208A1E10208D5CA0208F4
:10338200FDE00208000000000000000045C702083E
:10339200ACDB0408050804000000000068D504083E
:1033A20020D0040854D504080000000000000000EA
:1033B200D8DB040805080A000000000068D50408EC
:1033C20020D0040834D404080000000000000000EB
:1033D200080000009DC6020899C6020895C60208A8
:1033E20089C6020885C6020891C602088DC602086F
:1033F20011C7020805C70208DDC60208F1C60208A5
:10340200C9C60208B5C60208A1C60208010000002A
:103412000060024010600240000000000000000056
:10342200000B00000000000000000000000000008F
:10343200006002402860024001000000000000001D
:10344200060C000000000000000000000000000068
:1034520000600240406002400200000000000000E4
:10346200100D00000000000000000000000000003D
:1034720000600240586002400300000000000000AB
:10348200160E000000000000000000000000000016
:103492000060024070600240040000000000000072
:1034A200200F0000000000000000000000000000EB
:1034B2000060024088600240050000000000000039
:1034C20026100000000000000000000000000000C4
:1034D20000600240A0600240060000000000000000
:1034E2003011000000000000000000000000000099
:1034F20000600240B86002400700000000000000C7
:10350200362F000000000000000000000000000054
:10351200006402401064024000000000000000004D
:103522000038000000000000000000000000000061
:103532000064024028640240010000000000000014
:10354200063900000000000000000000000000003A
:1035520000640240406402400200000000000000DB
:10356200103A00000000000000000000000000000F
:1035720000640240586402400300000000000000A2
:10358200163B0000000000000000000000000000E8
:103592000064024070640240040000000000000069
:1035A200203C0000000000000000000000000000BD
:1035B2000064024088640240050000000000000030
:1035C200264400000000000000000000000000008F
:1035D20000640240A06402400600000000000000F7
:1035E2003045000000000000000000000000000064
:1035F20000640240B86402400700000000000000BE
:10360200364600000000000000000000000000003C
:1036120001000000982D00200000000000000000C2
:103622000000000000000000000000000000000098
:103632000000000000000000000000000000000088
:103642000000000000000000000000000000000078
:103652000000000000000000000000000000000068
:103662000000000000000000000000000000000058
:08367200000000000000000050
:10800000436A8269D154436A0169C26B01338B426E
:1080100028BF00234362DAB1EFF31183502282F3C9
:108020001288C26B1168C9070ED470B45468FCB9C9
:10803000D0E909518D4211D1012280F86020DBB2D4
:1080400083F3118870BC7047DBB283F311887047EB
:10805000C26DD36843F08003D360704786690E44D5
:10806000D6600ED9691A51608562002180F86010CF
:10807000116841F00101DBB2116083F3118870BC1B
:1080800070470569691A51608462EEE7034610B4CF
:10809000846BD968406954B11A6D8C1A013A005D3D
:1080A0005DF8044B08BF0A46C0B21A6570471A6AE9
:1080B000805C01328A4228BF2246C0B21A625DF853
:1080C000044B7047C36B13B190F860007047D0E960
:1080D0000903181AB0FA80F040097047D0E9091274
:1080E0000369914238BFC9188A1AC16B013B19B1A3
:1080F00049680A449A4201D2981A70470020704792
:10810000836B43B1026D5B689A4291BF981AC06855
:108110009B1AC0187047D0E907239A422FBFD01A84
:10812000C0688018C01A70470A4B30B503F10C04C0
:1081300093F900205D78072AC8BF143A81180433E8
:10814000CD7213F8025C855413F8012C8A759C4299
:10815000EED130BD24A7040803682DE9F0415D6A23
:108160001DB12B46BDE8F0411847002A174611DD26
:1081700004460E460F4400E023689B68204698475B
:108180000028F9D0236816F8011B1B682046984781
:10819000BE42F1D1BDE8F08103681B69184700BFFA
:1081A00000233D22027043708370C370704700BF8C
:1081B00003685A1C02601970704700BF2DE9F04730
:1081C000089C2578002B804689460CBF4FF0200A7A
:1081D0004FF0300A661C25B3002A26DD334601E045
:1081E000024698B113F8011B501E0029F8D1971EC2
:1081F00060B13D46013D51464046C8476B1C002BCF
:10820000F8DC257827EAE770013045B1041B2946E0
:108210004046C847301916F8015B002DF7D1BDE87C
:10822000F087002A03DC2846F9E70020EEE7571E16
:10823000DFE700BF90ED057A90ED004AD0ED066AC9
:10824000D0ED014AD0ED047A90ED035AD0ED025AF8
:10825000A4EE007AB0EE406AB0EE470AB0EE667A5D
:10826000A4EE867A67EEC07AA5EE407AE5EE867ACD
:1082700080ED057AC0ED067A704700BFD0ED057A33
:1082800090ED013AD0ED003AD0ED064A90ED024A69
:1082900090ED077A90ED035A90ED086AD0ED045AFC
:1082A000C0ED067AF0EE406A27EE830AC0ED056A5B
:1082B000A3EEA60A80ED087AA4EE240AA5EE470AEA
:1082C000A5EEC60A80ED070A704700BFD0ED007A20
:1082D00090ED017A30EE670AE7EE007AB0EE670AB9
:1082E000C0ED007A704700BF704700BF0028F0B4AF
:1082F00003DA2D230B7040420131092804464FF068
:10830000010307DD03EB83035B00B0FBF3F2092AF3
:10831000F8D883B10F48A0FB0326B4FBF3F2092A77
:1083200002F1570C02F1300709DD03FB1244F30898
:1083300001F801CBEFD100230B70F0BC704703FBB9
:108340001244F30801F8017BE5D100230B70F0BC67
:10835000704700BFCDCCCCCC884270B44FF0010444
:1083600042D301FB04F4B0FBF4F58D42F9D2ECB139
:1083700042BB092D04FB150005F1570605F130023B
:108380000EDDB4FBF1F403F8016B7CB1B0FBF4F546
:10839000092D04FB150005F1570605F13002F0DC4C
:1083A000B4FBF1F403F8012B002CEFD100221A707A
:1083B00070BC704703F8016BB4FBF1F4002CF5D0EE
:1083C000B0FBF4F5092D04FB150005F1370605F1A6
:1083D0003002EFDCB4FBF1F403F8012B002CEFD1F9
:1083E00000221A7070BC70470546002AEAD1C0E727
:1083F0000A44914215D030B40139551E41F2210290
:1084000011F8014F082380EA042004044CBF82EADB
:1084100040004000013B80B2F7D18D42F0D130BC2A
:10842000704770472DE9F04714461D4606464FF445
:108430007A720023204629463FF02AFC4D4BDFF894
:1084400050814D4A4D4F034488FB03101844D917FF
:1084500082FB032CC1EB601088FB002887FB0327FD
:108460009C44474AC1EBEC2CC0EB001E82FB0C295C
:10847000A3EB8E0E1F44434A86F806E0C1EB274764
:108480004FEAEC7E08EB000ACEEBA90E82FB0782D6
:108490004FEAE0780EEB4E0EC8EB6A18ACEBCE0C50
:1084A000C8EB0818DFF8ECE086F804C0A0EB880001
:1084B00070718EFB0303F817C0EBE21240F2B55067
:1084C00000FB1272C1EBE353B2F5896F4FEA8307E9
:1084D0003FDA40F2DA239A4243DCB2F5B77FB4BF09
:1084E0004FF0000E4FF0010E4FEA4E08264B08EBFE
:1084F0000E0103EBC1031FFA8EFC588C234908EBD5
:108500000E0301EBC30116310B2301E031F8020D1C
:1085100090421BDD013BF9D11B4BC64403EBCE0E51
:108520000123BEF80C00B37007F5FA670132121A86
:10853000BC44F270A6F800C0204629464FF47A7277
:1085400000233FF0A5FB3281BDE8F0870133DBB2A9
:10855000E9E74FF0030CE64640F296504FF006086C
:10856000CCE74FF0020CE64640F229404FF00408F9
:10857000C4E700BF80BC92C7C5B3A29107452EC215
:10858000ABAAAA2A73B06D1624A7040830A7040862
:1085900089888888792D031130B403888278174D33
:1085A000C478A3F5FA6303F0030101EB4101013A3A
:1085B00002EB810205EB4202611E9589027940F2CD
:1085C000B5549B0804FB03132B4403EB430302EB5A
:1085D000C303427984790A490089C3EB031302EB90
:1085E00083032144C3EB031301EB83034FF47A723B
:1085F0000021C2FB030130BC704700BF24A7040860
:1086000080436D38F0B400250E4E00F1FF3C2F463C
:10861000142165B103788B420BD003460CEB0504A3
:1086200003E013F8012F8A4203D0A342F9D1C155C8
:10863000013701350B2D02D016F8011FE9E7F0BC18
:10864000704700BF90A704080C4AF0B4002302F161
:10865000080717261625152403EB4303C118BA4251
:10866000C4544D708E7006D092F9043054799579C7
:10867000D6790432F0E7F0BC704700BF9CA704082D
:1086800009211F220323017042728372704700BFC9
:108690000123202121224170427103720370037172
:1086A000704700BF01212C220223017042708370A9
:1086B000704700BF06224FF47A7302704360704720
:1086C00001207047CB79002B66D1F0B48E7A4F7AB7
:1086D0004D7B0C7CCB7CDFED316A9FED317A320231
:1086E00002F470623A43CF7A84B0360946EA07163C
:1086F0004FEA052C0CF47067ADF8026091F80CC0DD
:108700008E7BADF800202D094CEA070C45EA0615D2
:10871000260206F47067ADF804C0CE7B91F811C054
:10872000ADF8065024093E438D7C0F7DADF80860FE
:1087300044EA0C111C0204F470641B09254343EA4B
:1087400007136FF001046F46ADF80C50ADF80E3012
:10875000ADF80A10C7F10E06E41B0DF1020304ADDB
:1087600001E033F8022BC2F30A0107EE901AF8EE8B
:10877000E77AB0EE476AA7EEA66A120504EB03019A
:1087800048BFF118FCEEC67AAB4217EE902A42526F
:10879000E7D104B0F0BC7047704700BFABAA2A3FD6
:1087A00000804C44F0B4174C2378591C01F03F0171
:1087B000E5184B1C21447E2603F03F021B232E713B
:1087C00022700B71C61D7D2704E0A518B042DAB2F5
:1087D000297113D010F8011BA1F17D05531C012D47
:1087E00003F03F03F1D82244E51881F02001013362
:1087F000B042177103F03F022971EBD12270F0BC37
:10880000704700BFF82D0020F0B58F7A8D79CC7AB3
:10881000CE790A7CDFED5F3A4B7C4FEA072E0EF4EF
:10882000706E45EA0E053F0107F4706C04EE105AB5
:108830004FEA042E0D7A240104F470670EF4706E72
:1088400046EA0C0404EE904A45EA0E0405EE104A8E
:108850004C7AF8EEE44A3C4305EE904A16020C7B53
:10886000120102F4706506F470664A7BB8EEC55AD0
:1088700064EEA34A34432A4306EE104AF8EEE55A62
:1088800025EE235AFCEEE44A06EE902A1D028A7B6E
:108890001B0185B003F4706405F47065CB7BB8EE02
:1088A000C66A14EE901A65EEA35ABCEEC55A2A4366
:1088B00007EE102AB8EEC44AF8EEE66A26EE236AFE
:1088C000FCEEE55AADF8021015EE101A234307EE40
:1088D000903AB8EEC77A24EE234A66EEA36ABCEE5D
:1088E000C66AADF8041015EE901AF8EEE77A27EE96
:1088F000237ABCEEC44AFCEEE66AADF8061016EE2A
:10890000101A67EEA37A14EE103ABCEEC77AADF8EF
:10891000081016EE901A9BB2FCEEE77AADF80A103A
:1089200017EE101A1A46ADF80C10A2F5487217EEA1
:10893000901A0DF10204B2F5AF6FADF80E10ADF85C
:108940000030214604AD08D8A9420CD031F8022BE2
:10895000A2F54872B2F5AF6FF6D90F4B1B78122B08
:108960000CD005B0F0BD821E0E3001E034F8023BA1
:1089700022F8023F9042F9D105B0F0BD074A0849FC
:10898000B2F8443001339BB2A2F844300B8005B0FA
:10899000F0BD00BFABAA2A3F69900020F82D00204F
:1089A0006C900020054A92F846303F2B05D8D1182C
:1089B000013381F8480082F846307047F82D0020D6
:1089C000014BD3F888301847F82D002000220823E7
:1089D00002754375704700BF012380F85730704718
:1089E000F0B4037C456902681F2B37D9203B202156
:1089F000546899400C4223D010249C40D160D4602C
:108A00005168D940CE074ED4EFF31183502282F340
:108A10001288EA6B1168C90709D45468002C52D136
:108A2000D5E909618E4243D1012285F86020DBB28D
:108A300083F31188037C02681F2B194614D9203B4D
:108A4000082150689940084200D0D1600421506844
:108A500001FA03F3184223D1F0BC704720241668B2
:108A60009C4026420FD11946082310688B401842BB
:108A700000D093600423106803FA01F10842EBD0A0
:108A80009160F0BC7047102199409460916011682A
:108A9000D940CC07B8D5012101FA03F39360B3E7BD
:108AA000D360F0BC7047012101FA03F3D360ABE758
:108AB000AF690F44D7600ED82E69711A5160AC624D
:108AC000002185F86010116841F00101DBB21160EE
:108AD00083F31188AEE7711A5160AE62F0E700BF10
:108AE00070B4037C01681F2B26D9A3F12005202236
:108AF0004C68AA40224214BF01220022D2B142692E
:108B00001B481C4C02EB420200EB421225785468D1
:108B10002068CDB9E56856892C6824F001042C60E2
:108B200082891F2B22EA060282811AD8202202FAA9
:108B300003F38B6070BC704720220C689A4022427D
:108B400014BF01220022D9E7A469226822F00102A1
:108B50002260828922F480721204120C1F2B8281FF
:108B6000E4D9A3F1200220239340CB6070BC70476E
:108B70000CB3002008B3002010B5027C01681F2A46
:108B80004FF020030ED94C68203A93401C4208D085
:108B90000B4A406800241470026822F0010202604F
:108BA000CB6010BD0C6893401C42FAD0044A406868
:108BB00000241470026822F0010202608B60F0E76A
:108BC000D071002070B544880546C4F30B042246DA
:108BD00008460E46002141F037FD2B69094A9342B1
:108BE00002D3094A934205D35BB121463046BDE822
:108BF00070401847224630461946BDE870403FF0A5
:108C00009FBA70BDF00600088208000810B5154C28
:108C100094F8C830002B144B14BF012200221A70A4
:108C20000BD0042204F1AE01104841F04BFD142298
:108C300004F1B3010E4841F045FD94F8C930002B12
:108C40000C4B14BF012200221A7009D00A4B0B4AA8
:108C500003F1200153F8040B42F8040B8B42F9D1C5
:108C600010BD00BFF82D0020454D0020189B0020AE
:108C7000009B0020444D0020862E0020209B0020D9
:108C800038B51D4B1B78044600F1250593B104222D
:108C90001A49203041F016FD28461422184941F0A7
:108CA00011FD012384F83A30164B1B7873B984F810
:108CB0003B3038BD28461422134941F003FD0123FF
:108CC00084F83A300F4B1B78002BF0D00F4B18680C
:108CD00059689A68DD68E56020606160A260DD69BE
:108CE000186959699A69A2610123E561206161618E
:108CF00084F83B3038BD00BF454D0020189B002054
:108D0000009B0020444D002078E40408209B0020B4
:108D100030B50446C06D21718389A26823F40053E5
:108D20001B041B0C838185B06379009213F0040F40
:108D30004FEA03324FEA03230CBF00254FF480555E
:108D400003F4806302F40052ADF80450ADF808302B
:108D5000002511F00103ADF80620ADF80C501CD130
:108D6000ADF80A3008238A07694648BFADF80A30D3
:108D700026F0ACFB637913F0080FE36D9A8A05BF08
:108D800022F00802120442F00802120C9A829A8918
:108D900042F400529A8105B030BD0423ADF80A3088
:108DA0000C23E0E730B50446C06DA160838923F44D
:108DB00000531B041B0C8381637985B013F0040FEF
:108DC000009108BF0025217918BF4FF48055ADF8F8
:108DD00004501A0300251B0203F48063ADF80A5007
:108DE000ADF80C50CD07ADF8083002F4005244BF86
:108DF0000423ADF80A30ADF806204CBF0C2308233D
:108E00008A07694648BFADF80A3026F05FFB6379F0
:108E100013F0080FE36D9A8A05BF22F008021204CE
:108E200042F00802120C9A829A8942F400529A8106
:108E300005B030BD38B52C22002141F005FC0346B9
:108E40006421222040F2DC521873197440F202208F
:108E500013215A82202240F21A4540F26C74188382
:108E600099760E2002215A7701229D82DC8240F2FF
:108E7000753540F6430483F8220083F82A109A736C
:108E800083F82920DD831C8419460248BDE8384058
:108E900016F0ACB888E4040840F0800039F016B948
:108EA00032F0A8BA38B5224C94F8CA3094F8CB20E6
:108EB0001844C0B2904284F8CA0005D3801AC0B2E8
:108EC0009042FBD284F8CA00362032F0ABFA94F814
:108ED000CA502544232095F8D03303EB43032344A1
:108EE00093F8CC10FFF7DCFF95F8D03303EB430386
:108EF0002344242093F8CD10FFF7D2FF95F8D03308
:108F000003EB43032344252093F8CE10FFF7C8FF5B
:108F100095F8D0130A20FFF7C3FF94F80434082B08
:108F200000D038BD3A20BDE8384032F07BBA00BFEF
:108F3000F82D002038B52B4A2B48137852782B494E
:108F40002B4C2C4D02EB820200EB8202C3EB031090
:108F5000C3EB800301EB430323602A601FF0BCF9DD
:108F600030220021244841F06FFB20681CF02AFACF
:108F7000224A23491079234A234B1160C8226421D5
:108F800011FB00210022C3E90112C3E90322C3E956
:108F90000522DA6183F8202083F8212015F012FAE7
:108FA0001A4ADFED1B6A138854791A491A48086077
:108FB00007EE103A5388127907EE903AB8EEC77A66
:108FC000F8EEE77A154B27EE267A67EEA67A1C7242
:108FD0005A7283ED017AC3ED007ABDE838402DF076
:108FE0009BBC00BFF09A0020CA8000202A7F00208E
:108FF000B06A0020B46A0020EC5200209881002062
:1090000006CA0020943A00207C660020BC3A00206A
:1090100017B7D138284D00203661023D004D0020A1
:109020000B4B1B7810B58BB90A4B0B4A03F120018F
:1090300053F8040B42F8040B8B42F9D1074B01247F
:1090400083F8C940FFF7E2FD204610BD0020FCE791
:10905000444D0020209B0020862E0020F82D00206B
:10906000074B1B7853B9074B00F1200250F8041B43
:1090700043F8041B9042F9D101207047002070474B
:10908000444D0020209B002038B50C4B1B789BB929
:109090000B4D0C49042205F1AE0041F013FB0124F5
:1090A0001422094905F1B30041F00CFB85F8C840D2
:1090B000FFF7ACFD204638BD0020FCE7454D002001
:1090C000F82D0020189B0020009B0020F0B50C29F3
:1090D00034D8DFE801F08A3333335F33333334334A
:1090E00033330700048C9689B2F802C01788744D98
:1090F00024F480542404240C0484038C8488818BFD
:1091000023F4005321F4E6411B0409041B0C46EA36
:109110000C06090C43EA063341EA0721A8429BB238
:10912000A4B289B200F09E8005F58065A84200F0E7
:10913000998092688480818302640384F0BD048CEA
:109140009589B2F802E017885D4E24F480742404F7
:10915000240C0484038CB0F804C0818B23F40073C6
:109160001B0421F0730145EA0E041B0C090443EAB9
:109170000423090CB0429BB21FFA8CF541EA0701A7
:109180005BD0504CA04258D0926885808183C263E6
:109190000384F0BD048C9589B2F802E0B2F800C0F7
:1091A000474E24F010042404240C0484038C878884
:1091B000018B23F0200321F4E6411B0409041B0C5E
:1091C00045EA0E04090C43EA041341EA0C21B042BB
:1091D0009BB2BFB289B25BD03A4CA04258D09268E1
:1091E0008780018382630384F0BD048C9589B2F883
:1091F00002C01788324E24F001042404240C048495
:10920000018C8488038B21F0020123F0730309048D
:109210001B04090C45EA0C051B0CB04241EA050190
:10922000A4B243EA070324D0264DA84221D0926875
:109230008480038342630184F0BDD489168A578AEF
:1092400023F4006343EA04234FF6FF341C40938861
:1092500025F440553E4344EA032345EA06149BB2F5
:10926000A5B291E7158A24F4804444EA8514A4B297
:109270005FE7D689158A578A21F00801314396881D
:1092800024F4407421F004013D4331432C43CEE7E4
:10929000D489168AB2F812C023F0800343EA04137B
:1092A0004FF6BF741C40938827F4406546EA0C06CD
:1092B00044EA031345EA86049BB2A7B28FE700BFD6
:1092C00000000140000401402DE9F84FC8220021B0
:1092D000DFF8108279487A4C7A4E7B4FDFF808929B
:1092E000DFF808A241F0B0F978497948DFF800C208
:1092F000DFF800E208F5A27245462B688B4200F0C9
:10930000B280B3F1804F00F0B580A34200F0B98085
:10931000B34200F0C480BB4200F0C380634500F05C
:10932000C280734500F0C1804B4500F0C0805345BA
:1093300000F0C080DFF8C0B15B4508BF4FF4802368
:1093400000F092802435AA42D7D1624F624E4FF08E
:10935000030A4FF0020998F80630002B7CD098F8E9
:1093600004301C09013C032C03F00F0374D837F8B8
:10937000140040FA03F2D2076ED54FF0010B0BFA3E
:1093800003F3013B18403EF0D3FC544B1B5D1844E3
:1093900016EBC00460D056F83030514898F80810E9
:1093A00003F13F4202F57E02920A825C02F01F0046
:1093B0005209032A0BFA00FB6BD0042A63D0022A5D
:1093C00004D14348426C4BEA02024264B4F804C040
:1093D000BCFA8CF2C2F11F0292B2D00803EB8000FB
:1093E00002F00702046A92004FF00F0E0EFA02FE1E
:1093F00024EA0E040462046A01FA02F222430262C1
:109400004FF0010E00220EFA02F434EA0C0120D1D2
:109410005000D3F800B00AFA00F1C9430BEA010B7F
:10942000C3F800B0D3F800B009FA00F040EA0B002E
:10943000186098680840986098689860586820EAB2
:1094400004045C6058685860D8680140D960D968E5
:10945000D9600132102AD6D108F1240845457FF49D
:109460007AAFBDE8F88F0123D0F844B043EA0B038C
:10947000436467E70123D0F840B043EA0B03036479
:1094800060E70223F7E71248026B4BEA020202632D
:109490009CE70F48026C4BEA0202026496E7042341
:1094A000E9E70823E7E71023E5E72023E3E74FF4A4
:1094B0008033D9E74FF40033D6E700BFF4A3002090
:1094C0000004004000080040000C00400000014083
:1094D00000380240E0DD040880900020E8DD040848
:1094E00004DC04089CDC0408004001400044014006
:1094F00000100040001400400048014000B97047CF
:1095000003682DE9F04F03F13F4404F57E04534E08
:10951000A40A0125345D04F01F066409032C05FA32
:1095200006F500F09580042C00F08D80022C45D0CB
:109530008588B5FA85F0C0F11F0080B2C40803EB3E
:10954000840400F00700266A80000F27874026EA7F
:1095500007062662276A01F003068240701E3A431E
:1095600001282262C1F3810EC1F300184FF00002FE
:109570004FEA51114FF0010C25D94FF0030E0CFAB0
:1095800002F0A84315D150001F680EFA00F4E4431E
:1095900027401F60D3F8008006FA00F747EA080763
:1095A0001F60DF683C40DC60DC6801FA00F02043AB
:1095B000D8600132102AE2D1BDE8F08F284C666CE9
:1095C00035436564B4E74FF003090CFA02F737EA54
:1095D000050033D15000D3F800A009FA00F4E443A9
:1095E0000AEA040AC3F800A0D3F800B006FA00FAA9
:1095F0004AEA0B0AC3F800A0D3F808A004EA0A0A52
:10960000C3F808A0D3F808B00EFA00FA4AEA0B0A29
:10961000C3F808A0D3F804A02AEA07075F60D3F8CC
:1096200004A008FA02F747EA0A075F60DF683C40D7
:10963000DC60DC6801FA00F02043D8600132102AB7
:10964000C3D1BDE8F08F064C266B354325636FE729
:10965000034C266C354325646AE700BF04DC04082C
:109660000038024003682DE9F04F03F13F4404F550
:109670007E04534EA40A0125345D04F01F066409DC
:10968000032C05FA06F500F09580042C00F08D807F
:10969000022C46D08588B5FA85F0C0F11F0080B253
:1096A000C40803EB840400F00700266A80000F273B
:1096B000874026EA07062662276A01F0030602FAB7
:1096C00000F0721E3843012AC1F3810EC1F3001865
:1096D00020624FEA51114FF000024FF0010C25D9E2
:1096E0004FF0030E0CFA02F0A84315D150001F688A
:1096F0000EFA00F4E44327401F60D3F8008006FA16
:1097000000F747EA08071F60DF683C40DC60DC6860
:1097100001FA00F02043D8600132102AE2D1BDE8FE
:10972000F08F284C666C35436564B3E74FF003094E
:109730000CFA02F737EA050033D15000D3F800A045
:1097400009FA00F4E4430AEA040AC3F800A0D3F8D3
:1097500000B006FA00FA4AEA0B0AC3F800A0D3F8F0
:1097600008A004EA0A0AC3F808A0D3F808B00EFA61
:1097700000FA4AEA0B0AC3F808A0D3F804A02AEAC0
:1097800007075F60D3F804A008FA02F747EA0A0760
:109790005F60DF683C40DC60DC6801FA00F0204379
:1097A000D8600132102AC3D1B9E7064C266B354385
:1097B00025636FE7034C266C354325646AE700BFD9
:1097C00004DC04080038024010B50409013C032CF5
:1097D00017D80E4B33F8142000F00F0042FA00F3B4
:1097E00013F001030FD0012303FA00F001381040F9
:1097F0003EF09EFA064A074B125D104403EBC00090
:1098000010BD002010BD184610BD00BFE0DD0408EB
:10981000E8DD0408809000202DE9F843304D2B8AC4
:10982000B5F80C8018EA030827D02E4E4FF00047F9
:10983000B8FA88F327FA03F2D24391B21B3B08EA45
:1098400002082982042B15D8DFE803F0372D2319ED
:109850000300D6F8C430002B39D1EB6A1FFA83F924
:10986000D6F8C04034B1236820464946984764681A
:10987000002CF8D1B8F1000FDAD1BDE8F883D6F8A2
:10988000A000696B036889B29847B8F1000FCFD187
:10989000F3E7D6F8A400A96B036889B29847B8F13A
:1098A000000FC5D1E9E7D6F8A800E96B036889B2D3
:1098B0009847B8F1000FBBD1DFE7D6F8AC00296CB0
:1098C000036889B29847B8F1000FB1D1D5E703F129
:1098D000FF3900231FFA89F9C6F8C430C0E700BF7A
:1098E00000400140F4A300202DE9F8432F4D2B8ABE
:1098F000B5F80C8018EA030827D02D4E4FF000472A
:10990000B8FA88F327FA03F2D24391B21B3B08EA74
:1099100002082982042B15D8DFE803F0352B221921
:109920000300D6F89C30002B37D1EB6A1FFA83F97D
:10993000D6F8984034B12368204649469847646871
:10994000002CF8D1B8F1000FDAD1BDE8F883B06F80
:10995000696B036889B29847B8F1000FD0D1F4E77A
:10996000F06FA96B036889B29847B8F1000FC7D1AF
:10997000EBE7D6F88000E96B036889B29847B8F145
:10998000000FBDD1E1E7D6F88400296C036889B2E5
:109990009847B8F1000FB3D1D7E703F1FF3900239F
:1099A0001FFA89F9C6F89C30C2E700BF000C0040DE
:1099B000F4A300202DE9F8432C4D2B8AB5F80C8038
:1099C00018EA030825D02A4E4FF00047B8FA88F36A
:1099D00027FA03F2D24391B21B3B08EA020829821C
:1099E000042B13D8DFE803F0322920170300736F2C
:1099F000002B34D1EB6A1FFA83F9346F34B123683A
:109A00002046494698476468002CF8D1B8F1000F09
:109A1000DCD1BDE8F883306D696B036889B2984783
:109A2000B8F1000FD2D1F4E7706DA96B036889B269
:109A30009847B8F1000FC9D1EBE7B06DE96B036847
:109A400089B29847B8F1000FC0D1E2E7F06D296CF8
:109A5000036889B29847B8F1000FB7D1D9E703F18D
:109A6000FF3900231FFA89F97367C6E70008004031
:109A7000F4A300202DE9F8434FF080452B8AB5F878
:109A80000C8018EA030825D0294E4FF00047B8FA99
:109A900088F327FA03F2D24391B21B3B08EA02088B
:109AA0002982042B13D8DFE803F0322920170300A2
:109AB000F36C002B34D1EB6A1FFA83F9B46C34B128
:109AC00023682046494698476468002CF8D1B8F1CD
:109AD000000FDCD1BDE8F883B06A696B036889B216
:109AE0009847B8F1000FD2D1F4E7F06AA96B036888
:109AF00089B29847B8F1000FC9D1EBE7306BE96B39
:109B0000036889B29847B8F1000FC0D1E2E7706BE3
:109B1000296C036889B29847B8F1000FB7D1D9E72B
:109B200003F1FF3900231FFA89F9F364C6E700BF88
:109B3000F4A300202DE9F8432C4D2B8AB5F80C80B6
:109B400018EA030825D02A4E4FF00047B8FA88F3E8
:109B500027FA03F2D24391B21B3B08EA020829829A
:109B6000042B13D8DFE803F0322920170300736AAF
:109B7000002B34D1EB6A1FFA83F9346A34B12368BD
:109B80002046494698476468002CF8D1B8F1000F88
:109B9000DCD1BDE8F8833068696B036889B2984707
:109BA000B8F1000FD2D1F4E77068A96B036889B2ED
:109BB0009847B8F1000FC9D1EBE7B068E96B0368CB
:109BC00089B29847B8F1000FC0D1E2E7F068296C7C
:109BD000036889B29847B8F1000FB7D1D9E703F10C
:109BE000FF3900231FFA89F97362C6E700000140BC
:109BF000F4A300202DE9F8432C4D2B8AB5F80C80F6
:109C000018EA030825D02A4E4FF00047B8FA88F327
:109C100027FA03F2D24391B21B3B08EA02082982D9
:109C2000042B13D8DFE803F0322920170300736AEE
:109C3000002B34D1EB6A1FFA83F9346A34B12368FC
:109C40002046494698476468002CF8D1B8F1000FC7
:109C5000DCD1BDE8F8833068696B036889B2984746
:109C6000B8F1000FD2D1F4E77068A96B036889B22C
:109C70009847B8F1000FC9D1EBE7B068E96B03680A
:109C800089B29847B8F1000FC0D1E2E7F068296CBB
:109C9000036889B29847B8F1000FB7D1D9E703F14B
:109CA000FF3900231FFA89F97362C6E700000140FB
:109CB000F4A30020F0B50668424CB30AA34272D068
:109CC00008D8B3F5801F6BD0013CA3425FD1702749
:109CD000022507E03C4CA3425FD01034A34256D18A
:109CE000C02704254379B6F80CE0022023FA00F4DB
:109CF000A0401FFA80FCA8002346441903EB44034C
:109D0000324C002952D04CEA0E0C03F1040E44F8F8
:109D1000231044F82E20A6F80CC0E319EFF31181AC
:109D2000502282F31288421904EBC202D2F810C00A
:109D3000BCF1000F03D044F807C013690433421983
:109D400004EBC202576917B11F605369043342190B
:109D500004EBC202976917B11F609369043342197B
:109D600004EBC202D76917B11F60D369043300271F
:109D7000CAB21F6082F31188284404EBC004236A2E
:109D800033B9B38923F001031B041B0CB381F0BD6D
:109D9000B38943F00103B381F0BD20270025A1E77B
:109DA000482701259EE7982703259BE72EEA0C0C00
:109DB00003F1040EA6F80CC044F8231044F82E203A
:109DC000ABE700BF0300100040001000F4A3002028
:109DD00030B50368584C594D18882468B4FBF2F22A
:109DE0000139013AAB4294B283B089B282B211D048
:109DF000534883420ED0B3F1804F0BD0A0F5803092
:109E0000834207D000F58060834203D000F5806074
:109E1000834202D122F0700292B24A48834269D052
:109E200000F58060834241D022F4407200F56C401E
:109E300092B283421A80D9621C8564D1012200212A
:109E400019869A821A883D4842F0010283421A809C
:109E500036D0B3F1804F60D03B4A93425FD002F5D9
:109E6000806293425DD002F5806293425BD002F53E
:109E70008062934259D002F58062934257D002F536
:109E80009632934255D002F58062934217D002F584
:109E90008062934208BF092112D002A84FF001232B
:109EA00040F8043D37F066FA03B030BD01201A8057
:109EB000D9621C8598821A8802431A80C9E7082152
:109EC000224B03EBC10100224C798DF804400123A1
:109ED00001A88DF805308DF807308DF8062037F091
:109EE00049FA1B2CE0D11A4B019301A837F042FA32
:109EF00003B030BD01201A80D9621C8598821A886F
:109F000002431A80A8E70E4A934297D001229A8210
:109F10001A8842F001021A809BE70121D0E7022152
:109F2000CEE70321CCE70421CAE70521C8E70621D3
:109F3000C6E70721C4E700BFDCB2002000000140F3
:109F4000000401400010004000040040ECDD040863
:109F5000190100011F4B98422CD0B0F1804F2BD03B
:109F6000A3F57C43984229D003F58063984227D01B
:109F700003F58063984225D003F58063984223D08F
:109F800003F58063984221D003F5963398421FD0A1
:109F900003F58063984207D003F58063984208BFB9
:109FA000092202D00020704708220B4B03EBC203AA
:109FB000187970470022F8E70122F6E70222F4E759
:109FC0000322F2E70422F0E70522EEE70622ECE79F
:109FD0000722EAE700000140ECDD0408002330B46A
:109FE0000F4A1D46012404E00133092B0DD012F85D
:109FF000244C30EA040402F12402F5D1A94207D02E
:10A0000001330135092BEDB2F1D1002030BC70478E
:10A01000044A03EBC30302EB830330BC1879704797
:10A02000C6DC04089CDC040810B5002104460120AD
:10A03000FFF7D4FF207010BD38B500240472451E10
:10A04000E1B20220FFF7CAFF0134082C05F8010F26
:10A05000F6D138BD68B10A4A1321002301E012F895
:10A06000241C884202F1240204D00133092BF6D1CA
:10A0700000207047034803EBC30300EB83007047E5
:10A08000C4DC04089CDC04082DE9F04F85B0CDE960
:10A0900002109B4DDFF878A2029B013B0293013333
:10A0A00000F02A8137F03EFD964C974FDFF864E2CE
:10A0B000964E4FF4FA7301934FF01008DEF8043017
:10A0C000C3F30803002B40F0F680EFF31183002B5D
:10A0D00040F0F1802068AA6823689842FAD133687A
:10A0E0009A42F7D8D7F800C04FF47A7101FB0CF30D
:10A0F0009B1AB3FBFCF301FB00304FF47A7C4FF06A
:10A100000109DEF80430C3F30803002B40F0B580EA
:10A11000EFF31183002B40F0B0802368A968226818
:10A120009342FAD132689142F7D83A680CFB02FBAD
:10A13000ABEB0101B1FBF2F10CFB03131B1AB3F5FE
:10A140007A7FDED3019B013B0193B7D1039B6F4E16
:10A15000581CC0B237F03AFBDFF8B8E14FF47A731D
:10A160000193DEF80430C3F308034FF01008002B0E
:10A1700044D1EFF31183002B40D12068AA682368F3
:10A180009842FAD133689A42F7D8D7F800C04FF412
:10A190007A7101FB0CF39B1AB3FBFCF301FB00305B
:10A1A0004FF47A7C4FF00109DEF80430C3F3080362
:10A1B000002B44D1EFF31183002B40D12368A96811
:10A1C00022689342FAD132689142F7D83A680CFB80
:10A1D00002FBABEB0101B1FBF2F10CFB03131B1A09
:10A1E000B3F57A7FE0D3019B013B01933FF454AF79
:10A1F000DEF80430C3F30803002BBAD0EFF3118369
:10A2000088F31288D5F808C02A68D20304D5012241
:10A21000CAF80020D5F808C02068DAF80090DBB250
:10A2200083F3118839684FF47A72484402FB01F3D2
:10A23000A3EB0C03B3FBF1F302FB0030B0E7EFF349
:10A24000118188F31288D5F808B02B68DB0344BF6E
:10A25000CAF80090D5F808B02368DAF80020C9B22F
:10A2600081F31188396813440CFB01F2A2EB0B0255
:10A27000B2FBF1F20CFB0323B1E7EFF3118188F39A
:10A280001288D5F808B02B68DB0344BFCAF80090E9
:10A29000D5F808B02368DAF80020C9B281F3118834
:10A2A000396813440CFB01F2A2EB0B02B2FBF1F292
:10A2B0000CFB032342E7EFF3118388F31288D5F8F0
:10A2C00008C02A68D20304D50122CAF80020D5F8B4
:10A2D00008C02068DAF80090DBB283F3118839688F
:10A2E0004FF47A72484402FB01F3A3EB0C03B3FB77
:10A2F000F1F302FB003000E705B0BDE8F08F00BFCE
:10A3000010E000E06C920020709200207492002017
:10A310006892002000ED00E0224B5B68C3F3080365
:10A3200030B4D3B9EFF31183BBB91F4A1F4D204896
:10A330001368846811688B42FAD129688C42F7D877
:10A340001C4A11684FF47A7202FB01F0001B30BC0A
:10A35000B0FBF1F002FB03007047EFF31182102312
:10A3600083F3128803F1E023D2B29C68196811F4D8
:10A37000803F11491EBF012008609C680A4B186885
:10A380000B6882F311880B4A11684FF47A72034408
:10A3900002FB01F0001B30BCB0FBF1F002FB03003C
:10A3A000704700BF00ED00E06C9200207492002026
:10A3B00010E000E070920020689200202DE9F84F34
:10A3C0008046274C274DDFF8A490274EFFF7A4FFC7
:10A3D000DFF89CE0DFF89CC04FF0100A4FF47A776A
:10A3E000DCF80430C3F30803CBB9EFF31183B3B93E
:10A3F0002368A96822689342FAD132689142F7D85B
:10A40000DEF8002007FB02FBABEB0101B1FBF2F130
:10A4100007FB03131B1A4345E2D3BDE8F88FEFF3A4
:10A4200011818AF31288D5F808B02B68DB0304D5B4
:10A430000123C9F80030D5F808B02368D9F8002006
:10A44000C9B281F31188DEF80010134407FB01F252
